:100000000C94FE000C9424010C9424010C94240103
:100010000C9424010C9424010C9424010C942401CC
:100020000C9424010C9424010C9424010C942401BC
:100030000C9424010C9424010C9424010C942401AC
:100040000C9424010C9424010C9424010C9424019C
:100050000C9424010C9424010C9424010C9424018C
:100060000C9424010C9424010C9424010C9424017C
:100070000C946F010C9424010C9424010C94240121
:100080000C9424010C9424010C9424010C9424015C
:100090000C9424010C9424010C9424010C9424014C
:1000A0000C9424010C9424010C9424010C9424013C
:1000B0000C9424010C9424010C9424010C9424012C
:1000C0000C9424010C9424010C9424010C9424011C
:1000D0000C9424010C9424010C9424010C9424010C
:1000E0000C9424010C9424010C9424010C942401FC
:1000F0000C9424010C9424010C9424010C942401EC
:100100000C9424010C9424010C9424010C942401DB
:100110000C9424010C9424010C9424010C942401CB
:100120000C9424010C9424010C9424010C942401BB
:100130000C9424010C9424010C9424010C942401AB
:100140000C9424010C9424010C9424010C9424019B
:100150000C9424010C9424010C9424010C9424018B
:100160000C9424010C9424010C9424010C9424017B
:100170000C9424010C9424010C9424010C9424016B
:100180000C9424010C9424010C9424010C9424015B
:100190000C9424010C9424010C9424010C9424014B
:1001A0000C9424010C9424010C9424010C9424013B
:1001B0000C9424010C9424010C9424010C9424012B
:1001C0000C9424010C9424010C9424010C9424011B
:1001D0000C9424010C9424010C9424010C9424010B
:1001E0000C9424010C9424010C9424010C942401FB
:1001F0000C9424010C9424010C94240111241FBE9E
:10020000CFEFCDBFDFE3DEBF00E00CBF18BE19BEED
:100210001ABE1BBE10E2A0E0B0E2EAE8F3E000E0A4
:100220000BBF02C007900D92A230B107D9F71BBED9
:1002300011E2A2E0B0E201C01D92A230B107E1F7E5
:100240000E94A7010C94C3010C94000080915000FF
:100250008260809350008091510081FFFCCF84B771
:10026000886D84BF809141008093410084B7886D80
:1002700084BF809140008160809340008091500055
:100280008E7F80935000089584B7886D84BFE0E826
:10029000F0E08081908181609C7F892B808308952C
:1002A000E0E4F6E0808180688083E6EBF8E080811E
:1002B00083688083E7EBF8E08081806D8083E5EBE5
:1002C000F8E0808183608083E3EBF8E080818061E7
:1002D0008083E4EBF8E080818861808308951F9239
:1002E0000F920FB60F92112408B60F9218BE8F937B
:1002F0008091B10887FD02C00000FACF8091B0085C
:10030000809302208091B10885FD02C00000FACFE1
:10031000809102208093B00880918706826080934C
:1003200087068F910F9008BE0F900FBE0F901F9001
:1003300018959091B10895FD02C00000FACF809306
:10034000B008809187068260809387060895F894AC
:100350000E9426010E9444010E9450018091A20047
:1003600081608093A200789480918106826080935E
:1003700081062FEF87EA91E6215080409040E1F717
:0A03800000C00000F6CFF894FFCF94
:02038A0002204F
:00000001FF
